:100000000C94B5000C94D2000C94D2000C94D20045
:100010000C94D2000C94D2000C94D2000C94D20018
:100020000C94D2000C94D2000C94E4040C94D200F2
:100030000C94D2000C94D2000C94D4000C94D200F6
:100040000C94D2000C94D2000C94D2000C94D200E8
:100050000C94D2000C94D2000C94D2000C94D200D8
:100060000C94D2000C94D2006E616E00696E660032
:1000700000407A10F35A00A0724E18090010A5D45F
:10008000E80000E87648170000E40B54020000CABC
:100090009A3B000000E1F505000080969800000002
:1000A00040420F000000A086010000001027000061
:1000B0000000E803000000006400000000000A00E7
:1000C000000000000100000000002C76D888DC67EA
:1000D0004F0823DFC1DFAE59E1B1B796E5E3E45342
:1000E000C63AE651997696E8E6C28426EB898C9B5F
:1000F00062ED407C6FFCEFBC9C9F40F2BAA56FA5FF
:10010000F490055A2AF75C936B6CF9676DC11BFC80
:10011000E0E40D47FEF520E6B500D0ED902E03009B
:10012000943577050080841E080000204E0A0000E8
:1001300000C80C333333330F986E12831141EF8DA7
:100140002114893BE65516CFFEE6DB18D1844B38E7
:100150001BF77C1D901DA4BBE424203284725E2218
:100160008100C9F124ECA1E53D2711241FBECFEF8A
:10017000D8E0DEBFCDBF11E0A0E0B1E0E6EBFDE1ED
:1001800002C005900D92A836B107D9F711E0A8E694
:10019000B1E001C01D92AB39B107E1F70E94070140
:1001A0000C94D90E0C9400001F920F920FB60F9270
:1001B00011248F939F93AF93BF9380916801909187
:1001C0006901A0916A01B0916B010196A11DB11D59
:1001D0008093680190936901A0936A01B0936B01C9
:1001E000809187018F5F80938701843638F0109269
:1001F000870181E080936C0180936D01BF91AF9185
:100200009F918F910F900FBE0F901F9018952F9276
:100210003F924F925F926F927F928F929F92AF9296
:10022000BF92CF92DF92EF92FF920F931F93DF93D3
:10023000CF93CDB7DEB761970FB6F894DEBF0FBE90
:10024000CDBF82E084BD93E095BD99EF97BD8093CB
:100250006E000E941A060E9497050E945F0678941D
:1002600084EB0E94FE052090680130906901409067
:100270006A0150906B0110926F0110926E0141E083
:10028000642E712CA0906801B0906901C0906A0141
:10029000D0906B0180914F01882309F10E94550491
:1002A0000E944C0480E060E00E94890480E091E0BC
:1002B0000E94930481E060E00E94890480E191E063
:1002C0000E94930410924F0181E080937301A092E9
:1002D0007B01B0927C01C0927D01D0927E01809121
:1002E00073018130D1F480917B0190917C01A091C8
:1002F0007D01B0917E01A6019501281B390B4A0BA7
:100300005B0BDA01C901885E9340A040B04028F041
:100310000E944C0442E04093730180916D01882358
:1003200009F4C1C010926D0180917001882329F4F5
:100330000E94660581E0809370010E94C0062091B2
:100340007F01E22FF0E0EE0FFF1FE857FE4F918391
:1003500080832F5F20937F01253010F010927F0162
:1003600080918001853018F48F5F80938001209107
:100370008001E8E8F1E0EE24FF248701622F70E0BD
:10038000660F771F6E0F7F1F08C081919191A0E0CB
:10039000B0E0E80EF91E0A1F1B1FE617F707A9F7C2
:1003A00030E040E050E0C801B7010E94D70C49019D
:1003B00080918101882309F041C0790100E010E0BB
:1003C0008091820190918301A0918401B091850177
:1003D000E80EF91E0A1F1B1FE0928201F0928301B2
:1003E0000093840110938501209186012F5F209353
:1003F0008601243118F130E040E050E0C801B70137
:100400000E94D70C30935101209350012F313105B8
:1004100030F08EE190E090935101809350018091F3
:10042000500190915101059730F4A5E0B0E0B093F0
:100430005101A093500181E080938101809181015D
:10044000882381F0609150017091510165307105F0
:1004500018F401E010E003C08B0104501040861630
:10046000970618F0109274011EC0B5E08B16910427
:1004700020F424E62093740116C06819790980E0FD
:1004800090E024E630E040E050E00E94A40C9801A7
:1004900040E050E00E94D70C20937401253618F0FC
:1004A00034E630937401809170018823D1F00E946A
:1004B00035058823B1F00E945E05009719F48FE09E
:1004C00097E205C06AE370E00E94C30CCB01109272
:1004D00071010397089718F481E0809371011092DD
:1004E000700180916C01882309F4CCCE10926C01CC
:1004F000809172018F5F80937201853008F456C03D
:100500001092720180917301823008F44FC01091F3
:1005100071010091740180915201181779F080E007
:1005200060E00E948904112319F080E291E002C08A
:100530008FE291E00E949304109352018091530145
:100540000817A1F14DB75EB7485050400FB6F89468
:100550005EBF0FBE4DBFEDB7FEB7319621E030E074
:100560002C0F3D1FADB7BEB712963C932E9311973B
:1005700041E150E0538342838EE391E0958384838D
:10058000068317820E944A0EADB7BEB718960FB603
:10059000F894BEBF0FBEADBF81E060E00E94890449
:1005A000CE0101960E9493040093530180916E0145
:1005B00090916F0182309105B9F18330910530F44B
:1005C000009781F0019709F09CC01BC08430910511
:1005D00009F457C08430910508F443C0059709F029
:1005E00090C079C0A218B308C408D508B8EEAB16FD
:1005F000B3E0BB06B0E0CB06B0E0DB0608F442CEC9
:1006000080C080917101882309F43CCE80E00E9473
:10061000FE05A0927501B0927601C0927701D0924A
:10062000780122E030E04CC0809175019091760114
:10063000A0917701B0917801A81AB90ACA0ADB0A19
:1006400030E2A31633E0B30630E0C30630E0D30651
:1006500008F418CE43E050E050936F0140936E01D0
:1006600011CE80917101882309F00CCE10927A018D
:100670001092790184E090E090936F0180936E0175
:1006800001CE80917101882339F0A3E0B0E0B093EE
:100690006F01A0936E01F6CD8091790190917A015E
:1006A0008A30910590F084EB0E94FE05A0927501BE
:1006B000B0927601C0927701D092780125E030E0C7
:1006C00030936F0120936E01DDCD019690937A01F6
:1006D00080937901D7CD8091750190917601A09199
:1006E0007701B0917801A81AB90ACA0ADB0A30E981
:1006F000A31631E0B30630E0C30630E0D30608F4B9
:10070000C1CD70926F0160926E01BCCDFC01EE0F05
:10071000FF1F4130510569F4E05AFE4F0190F0810E
:10072000E02D808102C0440F551F6A95E2F7842BAB
:100730000FC0E05AFE4F0190F081E02D208181E052
:1007400090E002C0880F991F6A95E2F78095822396
:1007500080830895FC01EE0FFF1F4130510569F4BD
:10076000E65AFE4F0190F081E02D808102C0440FD7
:10077000551F6A95E2F7842B0FC0E65AFE4F019091
:10078000F081E02D208181E090E002C0880F991F68
:100790006A95E2F7809582238083089520E030E017
:1007A000442311F021E030E0A9010E94AA0308953A
:1007B000813029F0813030F0823099F406C0E8E2CF
:1007C000F0E005C0E5E2F0E002C0EBE2F0E02081FD
:1007D00081E090E002C0880F991F6A95E2F7282710
:1007E00020830895FC01EE0FFF1FEC5AFE4F01908D
:1007F000F081E02D208130E002C0359527956A9583
:10080000E2F721703070C9010895982F9860962BF7
:1008100084EA8093BC008091BC0087FFFCCF8EE40B
:100820008093BB0084E88093BC008091BC0087FF6C
:10083000FCCF892F84608093BB0084E88093BC0048
:100840008091BC0087FFFCCF85E08A95F1F79B7F04
:100850009093BB0084E88093BC008091BC0087FF2C
:10086000FCCF84E98093BC0085E38A95F1F7089575
:100870000F931F93182F062F807F0E940504812F4E
:100880008295807F602F0E94050488EC90E001979C
:10089000F1F71F910F91089581E060E00E94380404
:1008A00080E49FE10197F1F708951092B90088E480
:1008B0008093B80084E08093BC0084EF91E020E94D
:1008C00031E0F9013197F1F70197D9F780E360E062
:1008D0000E94050480E29EE40197F1F780E360E066
:1008E0000E94050488E592E00197F1F780E260E05C
:1008F0000E94050488E260E00E9438048CE060E019
:100900000E94380486E060E00E9438040E944C0493
:100910000895882311F080EC01C080E8860F60E024
:100920000E9438040895CF93DF93EC0104C0219610
:1009300061E00E94380488818823C9F7DF91CF9154
:100940000895EF92FF921F93DF93CF9300D000D0D2
:1009500000D0CDB7DEB79C01009729F480E361E0B9
:100960000E94380425C0FE01319610E0C9016AE0FA
:1009700070E00E94C30C805D80831F5FC9016AE044
:1009800070E00E94C30C9B016115710519F031964E
:10099000153061F77E010894E11CF11C1150F7013C
:1009A000E10FF11D808161E00E9438041123B1F74D
:1009B00026960FB6F894DEBF0FBECDBFCF91DF9164
:1009C0001F91FF90EF9008951F920F920FB60F9214
:1009D00011242F933F938F939F9320918600309102
:1009E000870080916601882351F03093990120930C
:1009F000980110926601809181008F7B2BC08091BD
:100A00009801909199012817390728F08091980151
:100A10009091990106C08091980190919901205C74
:100A20003346281B390B2431310510F481E00DC009
:100A30002F5F3F4F36952795309393012093920176
:100A400081E08093940110929501809366018091DA
:100A500081008064809381009F918F913F912F91BD
:100A60000F900FBE0F901F901895809195018823CD
:100A700011F1809184009091850020919601309130
:100A800097018217930710F4805C9346821B930BA7
:100A90008153954780F01092950110929301109226
:100AA000920181E08093940180936601809181009E
:100AB0008064809381008091940108951092940144
:100AC0002091920130919301C901089510929401EF
:100AD00081E08093660180939501809184009091DC
:100AE00085009093970180939601E1E8F0E0808182
:100AF00080648083B59A82E090E067E040E050E057
:100B00000E94AA038AE08A95F1F782E090E067E00C
:100B100041E050E00E94AA0385E38A95F1F782E064
:100B200090E067E040E050E00E94AA03089582E070
:100B300090E067E041E050E00E94860382E090E0B0
:100B400067E040E050E00E94AA032098E1E8F0E06E
:100B5000808180648083808180688083B59AEFE69D
:100B6000F0E080818062808381E080936601109252
:100B70009401109295010895E0E8F0E08081806290
:100B8000808381E080939A010895E0E8F0E080811D
:100B90008F7D80832A9810929A01089580919A01FE
:100BA0000895089523E0883E920718F488EE93E0B4
:100BB00006C027E0813D920710F080ED97E09C0190
:100BC000220F331F8091880090918900821793072C
:100BD00020F4209188003091890030938B0020937D
:100BE0008A0080919A01882341F48091800080627C
:100BF0008093800081E080939A010895853B08F0FE
:100C000084EB682F70E080E090E028EE33E040E075
:100C100050E00E94A40C24EB30E040E050E00E9441
:100C2000D70CDA01C90188519C4FAF4FBF4F0E94CA
:100C3000D2050895229AA0E8B0E01C92E1E8F0E025
:100C400010828C9183608C938081886180838FE394
:100C50009CE99093890080938800808182608083E2
:100C60008C918F7D8C932A9810929A018AE50E942C
:100C7000FE0508958AE50E94FE05089580E00E9421
:100C8000FE050895E0E8F0E080818F7D80832A985A
:100C900010929A01089580917C00887F80937C0057
:100CA00080917A00806480937A0080917A0086FD3A
:100CB000FCCF2091780030917900C901089580E43B
:100CC00080937C0087E880937A000E944B06089509
:100CD000AF92BF92CF92DF92EF92FF920F931F934A
:100CE000DF93CF93CDB7DEB72A970FB6F894DEBF68
:100CF0000FBECDBF0E944B065C010E944B066C01EB
:100D00000E944B067C010E944B068C010E944B0600
:100D1000BA82A982DC82CB82FE82ED8218870F83A1
:100D20009A87898740E0DE011196BE01675F7F4F99
:100D300012C020813181828193818217930720F430
:100D400091838083338322833296E617F70789F7EE
:100D50004F5F453011F0FD01ECCF8D819E812A96C9
:100D60000FB6F894DEBF0FBECDBFCF91DF911F91BC
:100D70000F91FF90EF90DF90CF90BF90AF900895CC
:100D8000EF92FF920F931F930E946806A0E0B0E0DD
:100D9000BC01CD010E948B0B20E030E040EA5BE318
:100DA0000E94410C7B018C0123E333E343E350E4D5
:100DB0000E943D0C18161CF462E070E02DC0C801C2
:100DC000B7012DEC3CEC4CEC5EE30E94F30A882367
:100DD0001CF46EE170E020C060E070E088E391E414
:100DE000A80197010E94F70A7B018C0120E030E006
:100DF00040EF51E40E943D0C181654F40F2EF0E021
:100E0000EF2EF0E0FF2EF0EF0F2FF1E41F2FF02D6B
:100E1000C801B7010E945F0BCB011F910F91FF909A
:100E2000EF900895EF92FF920F931F930E94680630
:100E3000A0E0B0E0BC01CD010E948B0B20E030E0CF
:100E400040EA5BE30E94410C7B018C012DEC3CEC01
:100E50004CEC5EE30E94F30A88231CF46CE271E020
:100E600035C060E070E086EE92E4A80197010E9430
:100E7000F70A7B018C0120E030E040E252E40E945E
:100E8000F30A88235CF40F2EF0E0EF2EF0E0FF2E43
:100E9000F0E20F2FF2E41F2FF02D14C0C801B701AC
:100EA00020E030E046E953E40E943D0C181654F46B
:100EB0000F2EF0E0EF2EF0E0FF2EF6E90F2FF3E417
:100EC0001F2FF02DC801B7010E945F0BCB011F91AE
:100ED0000F91FF90EF900895A1E1B0E0E2E7F7E015
:100EE0000C94F90C3C017F876E876A01FC01178224
:100EF0001682838181FD03C06FEF7FEF6FC39E0178
:100F00002F5F3F4F398B288BF3012381EE85FF85BF
:100F100023FD859123FF8191FF87EE87882309F4C4
:100F20005AC3853251F4EE85FF8523FD859123FF59
:100F30008191FF87EE87853229F490E0B3010E940A
:100F40001E0EE2CF982F10E0882499241032B0F4BE
:100F50009B3269F09C3228F4903251F0933271F454
:100F60000BC09D3239F0903349F4116028C01260F3
:100F7000146025C0186023C0106121C017FD2AC06D
:100F8000892F80538A3078F416FF06C0FAE09F9EBE
:100F9000902C1124980E13C03AE0839E802C1124CB
:100FA000880E10620CC09E3221F416FD14C310642A
:100FB00006C09C3611F4106802C0983659F4EE85CC
:100FC000FF8523FD959123FF9191FF87EE8799235C
:100FD00009F0BCCF892F8554833020F4812F8061A4
:100FE000905E07C0892F8556833008F09FC1812FFE
:100FF0008F7E86FD02C076E0972E6FE3F62EF822F4
:10100000953619F4F0E4FF2A07C0963619F420E863
:10101000F22A02C091109A94F7FE0AC03BE33915F8
:1010200018F45CE3B52E02C0B92CB39427E009C0D4
:1010300047E0491520F4BB2447E0942EF7CF292D33
:10104000BB24C60104969D878C87F601608171815F
:1010500082819381AE014F5F5F4F0B2D0E94300D57
:101060006C010981202E332400FF04C003FD02C05F
:101070001DE209C0F1FE02C01BE205C0F2FC02C085
:1010800010E001C010E2C1018C709070892BB9F1A1
:10109000112311F483E001C084E0881510F0882446
:1010A0000AC0881AF3FC07C080E290E0B3010E94F6
:1010B0001E0E8A94C9F7112329F0812F90E0B30105
:1010C0000E941E0E23FE03C008E610E00EC00CE6D0
:1010D00010E00BC0E114F10409F0805290E0B3017C
:1010E0000E941E0E0F5F1F4F05C0EF2CFF24F0E182
:1010F000EF22FF24F8018491882361F714C1F7FEE1
:1011000012C0BC0C24FE04C08A81813309F4BA9455
:101110001B141CF0BB24B3942DC0F8E0FB1550F554
:1011200038E0B32E27C0F6FC25C0892D90E08C1541
:101130009D054CF02CEFC2162FEFD20624F030E8BC
:10114000F32A01C09A94992049F0E2E0F0E0EC0F14
:10115000FD1FE90DF11D80818033A1F3F7FE0AC068
:10116000B92CB394892D90E0C816D90614F09924AF
:1011700001C09C18F7FC03C025E030E009C01C1436
:101180001D041CF021E030E003C096012F5F3F4FAB
:10119000112311F02F5F3F4F992029F0892D90E006
:1011A0000196280F391F882D90E02817390714F071
:1011B000882401C0821A4F2C5524C2018970907076
:1011C000892B39F008C080E290E0B3010E941E0E26
:1011D0008A948820C1F7112329F0812F90E0B30170
:1011E0000E941E0E43FE07C008C080E390E0B301DA
:1011F0000E941E0E8A948820C1F7F7FE46C0860121
:10120000D7FE02C000E010E076010894E11CF11C5A
:10121000E01AF10A41E050E04C0F5D1FE40EF51EAC
:1012200026014B185108892D90E0AA24BB24A81A46
:10123000B90A5FEF0F3F150729F48EE290E0B30182
:101240000E941E0EC016D10634F0401651061CF442
:10125000F701808101C080E3015010400894E11C37
:10126000F11C0A151B052CF090E0B3010E941E0E24
:10127000E0CF0C151D0539F49A81963318F4953397
:1012800011F424FE81E390E04BC08A81813309F0A0
:101290000F7E90E0B3010E941E0E9920A1F08EE215
:1012A00090E0B3010E941E0E12E0E1E0F0E0EC0FCE
:1012B000FD1FE10FF11D1F5F808190E0B3010E94CF
:1012C0001E0E9A9491F744FC03C085E690E002C09C
:1012D00085E490E0B3010E941E0ED7FC05C0C11446
:1012E000D10441F404FF06C0D094C194D108D39432
:1012F0008DE201C08BE290E0B3010E941E0E80E3FC
:1013000005C08F5F26EF3FEFC20ED31E3AE0C31633
:10131000D104BCF790E0B3010E941E0EC601C09636
:10132000B3010E941E0ECC84DD8452C1933631F08D
:10133000933799F0933509F059C023C0F6018081A5
:1013400089835E010894A11CB11C22E030E0C20E2A
:10135000D31E21E0E22EF12C12C0F601A080B18054
:1013600016FD03C06FEF7FEF02C0692D70E022E031
:1013700030E0C20ED31EC5010E94130E7C011F7700
:1013800013C0F601A080B18016FD03C06FEF7FEFA0
:1013900002C0692D70E022E030E0C20ED31EC5010C
:1013A0000E94080E7C01106813FF07C01BC080E27A
:1013B00090E0B3010E941E0E8A94882D90E0E816FA
:1013C000F906A8F30FC0F50117FD859117FF81916C
:1013D0005F0190E0B3010E941E0E81108A94089470
:1013E000E108F108E114F10471F7F2C0943611F04C
:1013F000993689F517FF08C0F601208131814281B5
:10140000538184E090E00AC0F601808191819C01C3
:10141000442737FD4095542F82E090E0C80ED91E36
:101420009FE6F92EF12257FF09C05095409530955F
:1014300021953F4F4F4F5F4F90E8F92ACA01B901FC
:10144000AE014F5F5F4F2AE030E00E947B0EE82E36
:10145000E889EE1A41C0953721F41F7E2AE030E07A
:101460001CC0197F9F3661F0903720F4983509F041
:10147000B2C00FC0903739F0983709F0ACC004C043
:1014800028E030E00AC0106114FD146020E130E073
:1014900004C014FD166020E132E017FF08C0F60119
:1014A000608171818281938144E050E008C0F6013F
:1014B00080819181BC0180E090E042E050E0C40E68
:1014C000D51EAE014F5F5F4F0E947B0EE82E5889FC
:1014D000E51A8FE7F82EF122F6FE0BC08EEFF82208
:1014E000E91438F4F4FE07C0F2FC05C09FEEF922BF
:1014F00002C01E2D01C0192DF4FE0DC0FE01EE0D1F
:10150000F11D8081803319F4E9EEFE2208C01F5FCF
:10151000F2FE05C003C08F2D867809F01F5F0F2DE6
:10152000F3FC14C0F0FE0FC0181510F09E2C0BC079
:101530009E2C980C911A182D06C080E290E0B30101
:101540000E941E0E1F5F1815C0F304C0181510F47A
:10155000811A01C0882404FF0FC080E390E0B3012A
:101560000E941E0E02FF1DC001FD03C088E790E02F
:101570000EC088E590E00BC0802F867891F001FFC7
:1015800002C08BE201C080E2F7FC8DE290E0B30183
:101590000E941E0E06C080E390E0B3010E941E0E62
:1015A0009A94E914C0F3EA94E1E0F0E0EC0FFD1F37
:1015B000EE0DF11D808190E0B3010E941E0EEE2021
:1015C00091F706C080E290E0B3010E941E0E8A945B
:1015D0008820C1F799CCF30166817781CB016196B0
:1015E000E2E10C94150DD4D008F481E008950CD0FC
:1015F0000AC102D140F0F9D030F021F45F3F19F078
:10160000EBC0511134C1EEC00FD198F39923C9F347
:101610005523B1F3951B550BBB27AA2762177307F8
:10162000840738F09F5F5F4F220F331F441FAA1FAC
:10163000A9F333D00E2E3AF0E0E830D0915050406C
:10164000E695001CCAF729D0FE2F27D0660F771F1A
:10165000881FBB1F261737074807AB07B0E809F0FC
:10166000BB0B802DBF01FF2793585F4F2AF09E3F91
:10167000510568F0B1C0FBC05F3FECF3983EDCF36E
:10168000869577956795B795F7959F5FC9F7880F0A
:10169000911D9695879597F90895E1E0660F771F5C
:1016A000881FBB1F621773078407BA0720F0621BED
:1016B000730B840BBA0BEE1F88F7E0950895BCD02E
:1016C00088F09F5790F0B92F9927B751A0F0D1F02B
:1016D000660F771F881F991F1AF0BA95C9F712C0B5
:1016E000B13081F0C3D0B1E00895C0C0672F782F2A
:1016F0008827B85F39F0B93FCCF386957795679521
:10170000B395D9F73EF490958095709561957F4F8C
:101710008F4F9F4F0895E89409C097FB3EF4909532
:101720008095709561957F4F8F4F9F4F9923A9F0BA
:10173000F92F96E9BB279395F69587957795679549
:10174000B795F111F8CFFAF4BB0F11F460FF1BC08D
:101750006F5F7F4F8F4F9F4F16C0882311F096E920
:1017600011C0772321F09EE8872F762F05C06623CE
:1017700071F096E8862F70E060E02AF09A95660F87
:10178000771F881FDAF7880F9695879597F9089540
:10179000990F0008550FAA0BE0E8FEEF1616170682
:1017A000E807F907C0F012161306E407F50798F0EA
:1017B000621B730B840B950B39F40A2661F0232B03
:1017C000242B252B21F408950A2609F4A140A6957F
:1017D0008FEF811D811D089597F99F6780E870E064
:1017E00060E008959FEF80EC089500240A94161697
:1017F000170618060906089500240A9412161306FF
:10180000140605060895092E0394000C11F488238C
:1018100052F0BB0F40F4BF2B11F460FF04C06F5FA8
:101820007F4F8F4F9F4F089557FD9058440F551F7E
:1018300059F05F3F71F04795880F97FB991F61F052
:101840009F3F79F087950895121613061406551FC9
:10185000F2CF4695F1DF08C0161617061806991F35
:10186000F1CF86957105610508940895E894BB272A
:1018700066277727CB0197F908958ADF08F48FEF61
:1018800008950BD0C0CFB1DF28F0B6DF18F0952354
:1018900009F0A2CFA7CF1124EACFC6DFA0F3959F0E
:1018A000D1F3950F50E0551F629FF001729FBB2747
:1018B000F00DB11D639FAA27F00DB11DAA1F649FF3
:1018C0006627B00DA11D661F829F2227B00DA11DA6
:1018D000621F739FB00DA11D621F839FA00D611D2C
:1018E000221F749F3327A00D611D231F849F600D4D
:1018F000211D822F762F6A2F11249F5750408AF086
:10190000E1F088234AF0EE0FFF1FBB1F661F771F11
:10191000881F91505040A9F79E3F510570F05CCF51
:10192000A6CF5F3FECF3983EDCF3869577956795FD
:10193000B795F795E7959F5FC1F7FE2B880F911D2F
:101940009695879597F90895629FD001739FF0014E
:10195000829FE00DF11D649FE00DF11D929FF00D3F
:10196000839FF00D749FF00D659FF00D9927729F76
:10197000B00DE11DF91F639FB00DE11DF91FBD0101
:10198000CF0111240895AA1BBB1B51E107C0AA1F58
:10199000BB1FA617B70710F0A61BB70B881F991F10
:1019A0005A95A9F780959095BC01CD010895A1E2C3
:1019B0001A2EAA1BBB1BFD010DC0AA1FBB1FEE1FC9
:1019C000FF1FA217B307E407F50720F0A21BB30B14
:1019D000E40BF50B661F771F881F991F1A9469F790
:1019E00060957095809590959B01AC01BD01CF01EC
:1019F00008952F923F924F925F926F927F928F92B3
:101A00009F92AF92BF92CF92DF92EF92FF920F938D
:101A10001F93CF93DF93CDB7DEB7CA1BDB0B0FB697
:101A2000F894DEBF0FBECDBF09942A883988488854
:101A30005F846E847D848C849B84AA84B984C884EA
:101A4000DF80EE80FD800C811B81AA81B981CE0FE1
:101A5000D11D0FB6F894DEBF0FBECDBFED010895C6
:101A6000283008F027E03327DA01990F311D87FD70
:101A7000916000966105710539F432602E5F3D93E7
:101A800030E32A95E1F708959F3F30F080387105E3
:101A9000610509F03C5F3C5F3D93913008F0806840
:101AA000911DDF93CF931F930F93FF92EF92192F06
:101AB000987F9695E92F96959695E90FFF27E6531F
:101AC000FF4F99273327EE24FF24A701E701059054
:101AD0000894079428F4360FE71EF81E491F511D7D
:101AE000660F771F881F991F0694A1F7059007942A
:101AF00028F4E70EF81E491F561FC11D770F881FD7
:101B0000991F661F0694A1F70590079428F4F80E14
:101B1000491F561FC71FD11D880F991F661F771FAA
:101B20000694A1F70590079420F4490F561FC71F8C
:101B3000D81F990F661F771F881F0694A9F78491F5
:101B40001095177041F0D695C79557954795F7941E
:101B5000E7941A95C1F7E0E7F0E0689415901591C5
:101B600035916591959105907FE27395E118F10AA1
:101B7000430B560BC90BD009C0F7E10CF11E431FF4
:101B8000561FC91FD01D7EF4703311F48A95E6CF1D
:101B9000E894015030F0080F0AF40027021708F407
:101BA000202F2395022F7A3328F079E37D932A950D
:101BB000E9F710C07D932A9589F606949795679565
:101BC000379517951794E118F10A430B560BC90B7B
:101BD000D00998F023957E9173957A3308F070E3DD
:101BE0007C932013B8F77E9170617D9330F08395DC
:101BF00071E37D9370E32A95E1F71124EF90FF9054
:101C00000F911F91CF91DF91992787FD90950895AE
:101C1000FC010590615070400110D8F780959095B7
:101C20008E0F9F1F0895FC016150704001900110BC
:101C3000D8F7809590958E0F9F1F08950F931F934F
:101C4000CF93DF938C01EB018B8181FF1BC082FF5F
:101C50000DC02E813F818C819D812817390764F446
:101C6000E881F9810193F983E88306C0E885F98565
:101C7000802F0995892B31F48E819F8101969F8356
:101C80008E8302C00FEF1FEFC801DF91CF911F912C
:101C90000F910895AEE0B0E0E0E5FEE00C94070D92
:101CA0000D891E898F89988D97FF02C080E090E88A
:101CB00001979E838D831A83098386E08C839E011E
:101CC000255E3F4FCE010196698D7A8DA9010E9454
:101CD0006C074D815E8157FD0AC02F813885421700
:101CE00053070CF49A01020F131FF80110822E966D
:101CF000E4E00C94230DFA01AA27283051F1203199
:101D000081F1E8946F936E7F6E5F7F4F8F4F9F4F8F
:101D1000AF4FB1E03ED0B4E03CD0670F781F891FD1
:101D20009A1FA11D680F791F8A1F911DA11D6A0F9F
:101D3000711D811D911DA11D20D009F468943F9152
:101D40002AE0269F11243019305D3193DEF6CF0151
:101D50000895462F4770405D4193B3E00FD0C9F717
:101D6000F6CF462F4F70405D4A3318F0495D31FD84
:101D70004052419302D0A9F7EACFB4E0A6959795D7
:101D8000879577956795BA95C9F7009761057105AD
:101D900008959B01AC010A2E0694579547953795F7
:101DA0002795BA95C9F7620F731F841F951FA01D51
:061DB0000895F894FFCF36
:101DB600536D6172742054726173682042696E00BB
:101DC600496E697469616C697A696E672E2E2E0098
:101DD60048414E4420444554454354454420005709
:101DE600414954494E472E2E2E2020202000464998
:101DF6004C4C3A2025337525252020202020000133
:101E06001E00FFFF230026002900250028002B00C6
:081E1600240027002A0001004E
:00000001FF
